{
  "address": "0xE36c029E540Be8277418D44EB0781C4F3b232834",
  "abi": [
    {
      "inputs": [
        {
          "internalType": "address",
          "name": "vrfCoordinatorV2",
          "type": "address"
        },
        {
          "internalType": "uint256",
          "name": "entranceFee",
          "type": "uint256"
        },
        {
          "internalType": "bytes32",
          "name": "gasLane",
          "type": "bytes32"
        },
        {
          "internalType": "uint64",
          "name": "subscriptionId",
          "type": "uint64"
        },
        {
          "internalType": "uint32",
          "name": "callbackGasLimit",
          "type": "uint32"
        },
        {
          "internalType": "uint256",
          "name": "interval",
          "type": "uint256"
        }
      ],
      "stateMutability": "nonpayable",
      "type": "constructor"
    },
    {
      "inputs": [
        {
          "internalType": "address",
          "name": "have",
          "type": "address"
        },
        {
          "internalType": "address",
          "name": "want",
          "type": "address"
        }
      ],
      "name": "OnlyCoordinatorCanFulfill",
      "type": "error"
    },
    {
      "inputs": [],
      "name": "Raffle__NoFeeCap",
      "type": "error"
    },
    {
      "inputs": [],
      "name": "Raffle__NotOpen",
      "type": "error"
    },
    {
      "inputs": [],
      "name": "Raffle__TransferFail",
      "type": "error"
    },
    {
      "inputs": [
        {
          "internalType": "uint256",
          "name": "currentBalance",
          "type": "uint256"
        },
        {
          "internalType": "uint256",
          "name": "numPlayers",
          "type": "uint256"
        },
        {
          "internalType": "uint256",
          "name": "raffleState",
          "type": "uint256"
        }
      ],
      "name": "Raffle__UpkeepNotNeeded",
      "type": "error"
    },
    {
      "anonymous": false,
      "inputs": [
        {
          "indexed": true,
          "internalType": "address",
          "name": "player",
          "type": "address"
        }
      ],
      "name": "RaffleEnter",
      "type": "event"
    },
    {
      "anonymous": false,
      "inputs": [
        {
          "indexed": true,
          "internalType": "uint256",
          "name": "requestId",
          "type": "uint256"
        }
      ],
      "name": "RequestedRaffleWinner",
      "type": "event"
    },
    {
      "anonymous": false,
      "inputs": [
        {
          "indexed": true,
          "internalType": "address",
          "name": "winners",
          "type": "address"
        }
      ],
      "name": "WinnerPicked",
      "type": "event"
    },
    {
      "inputs": [
        {
          "internalType": "bytes",
          "name": "",
          "type": "bytes"
        }
      ],
      "name": "checkUpkeep",
      "outputs": [
        {
          "internalType": "bool",
          "name": "upkeepNeeded",
          "type": "bool"
        },
        {
          "internalType": "bytes",
          "name": "",
          "type": "bytes"
        }
      ],
      "stateMutability": "nonpayable",
      "type": "function"
    },
    {
      "inputs": [],
      "name": "enterRaffle",
      "outputs": [],
      "stateMutability": "payable",
      "type": "function"
    },
    {
      "inputs": [],
      "name": "getEntranceFee",
      "outputs": [
        {
          "internalType": "uint256",
          "name": "",
          "type": "uint256"
        }
      ],
      "stateMutability": "view",
      "type": "function"
    },
    {
      "inputs": [],
      "name": "getInterval",
      "outputs": [
        {
          "internalType": "uint256",
          "name": "",
          "type": "uint256"
        }
      ],
      "stateMutability": "view",
      "type": "function"
    },
    {
      "inputs": [],
      "name": "getLastestTimestamp",
      "outputs": [
        {
          "internalType": "uint256",
          "name": "",
          "type": "uint256"
        }
      ],
      "stateMutability": "view",
      "type": "function"
    },
    {
      "inputs": [],
      "name": "getNumWords",
      "outputs": [
        {
          "internalType": "uint256",
          "name": "",
          "type": "uint256"
        }
      ],
      "stateMutability": "pure",
      "type": "function"
    },
    {
      "inputs": [],
      "name": "getNumberOfPlayers",
      "outputs": [
        {
          "internalType": "uint256",
          "name": "",
          "type": "uint256"
        }
      ],
      "stateMutability": "view",
      "type": "function"
    },
    {
      "inputs": [
        {
          "internalType": "uint256",
          "name": "index",
          "type": "uint256"
        }
      ],
      "name": "getPlayer",
      "outputs": [
        {
          "internalType": "address",
          "name": "",
          "type": "address"
        }
      ],
      "stateMutability": "view",
      "type": "function"
    },
    {
      "inputs": [],
      "name": "getRaffleState",
      "outputs": [
        {
          "internalType": "enum Raffle.RaffleState",
          "name": "",
          "type": "uint8"
        }
      ],
      "stateMutability": "view",
      "type": "function"
    },
    {
      "inputs": [],
      "name": "getRecentWinner",
      "outputs": [
        {
          "internalType": "address",
          "name": "",
          "type": "address"
        }
      ],
      "stateMutability": "view",
      "type": "function"
    },
    {
      "inputs": [],
      "name": "getRequestConfirmation",
      "outputs": [
        {
          "internalType": "uint256",
          "name": "",
          "type": "uint256"
        }
      ],
      "stateMutability": "pure",
      "type": "function"
    },
    {
      "inputs": [
        {
          "internalType": "bytes",
          "name": "",
          "type": "bytes"
        }
      ],
      "name": "performUpkeep",
      "outputs": [],
      "stateMutability": "nonpayable",
      "type": "function"
    },
    {
      "inputs": [
        {
          "internalType": "uint256",
          "name": "requestId",
          "type": "uint256"
        },
        {
          "internalType": "uint256[]",
          "name": "randomWords",
          "type": "uint256[]"
        }
      ],
      "name": "rawFulfillRandomWords",
      "outputs": [],
      "stateMutability": "nonpayable",
      "type": "function"
    }
  ],
  "transactionHash": "0xfc62ae87ef24422fed873cf92feaaebbfe39e6cce8aef236b133ffcebd067fd4",
  "args": [
    "0x6168499c0cFfCaCD319c818142124B7A15E857ab",
    "10000000000000000",
    "0xd89b2bf150e3b9e13446986e571fb9cab24b13cea0a43ea20a6049a85cc807cc",
    "0",
    "500000",
    "30"
  ],
  "numDeployments": 1,
  "solcInputHash": "c07f5bb64aa1e1e858843e57fd314774",
  "bytecode": "0x6101606040523480156200001257600080fd5b506040516200182f3803806200182f833981810160405281019062000038919062000294565b858073ffffffffffffffffffffffffffffffffffffffff1660808173ffffffffffffffffffffffffffffffffffffffff1681525050508460a081815250508573ffffffffffffffffffffffffffffffffffffffff1660c08173ffffffffffffffffffffffffffffffffffffffff16815250508360e081815250508267ffffffffffffffff166101008167ffffffffffffffff16815250508163ffffffff166101208163ffffffff16815250506000600160146101000a81548160ff021916908360018111156200010d576200010c62000330565b5b0217905550426002819055508061014081815250505050505050506200035f565b600080fd5b600073ffffffffffffffffffffffffffffffffffffffff82169050919050565b6000620001608262000133565b9050919050565b620001728162000153565b81146200017e57600080fd5b50565b600081519050620001928162000167565b92915050565b6000819050919050565b620001ad8162000198565b8114620001b957600080fd5b50565b600081519050620001cd81620001a2565b92915050565b6000819050919050565b620001e881620001d3565b8114620001f457600080fd5b50565b6000815190506200020881620001dd565b92915050565b600067ffffffffffffffff82169050919050565b6200022d816200020e565b81146200023957600080fd5b50565b6000815190506200024d8162000222565b92915050565b600063ffffffff82169050919050565b6200026e8162000253565b81146200027a57600080fd5b50565b6000815190506200028e8162000263565b92915050565b60008060008060008060c08789031215620002b457620002b36200012e565b5b6000620002c489828a0162000181565b9650506020620002d789828a01620001bc565b9550506040620002ea89828a01620001f7565b9450506060620002fd89828a016200023c565b93505060806200031089828a016200027d565b92505060a06200032389828a01620001bc565b9150509295509295509295565b7f4e487b7100000000000000000000000000000000000000000000000000000000600052602160045260246000fd5b60805160a05160c05160e051610100516101205161014051611460620003cf600039600081816107df01526108620152600061069b01526000610678015260006106570152600061061b0152600081816102fa01526103f7015260008181610337015261038b01526114606000f3fe6080604052600436106100c25760003560e01c806353a2c19a1161007f578063ca6a9ef811610059578063ca6a9ef814610238578063e55ae4e814610263578063fa10c297146102a0578063fd6673f5146102cb576100c2565b806353a2c19a146101a45780636e04ff0d146101cf57806391ad27b41461020d576100c2565b806309bc33a7146100c7578063115cbaf5146100f25780631fe543e31461011d5780632cfcc539146101465780634585e33b14610150578063473f1ddc14610179575b600080fd5b3480156100d357600080fd5b506100dc6102f6565b6040516100e99190610be1565b60405180910390f35b3480156100fe57600080fd5b5061010761031e565b6040516101149190610c73565b60405180910390f35b34801561012957600080fd5b50610144600480360381019061013f9190610e27565b610335565b005b61014e6103f5565b005b34801561015c57600080fd5b5061017760048036038101906101729190610ede565b610564565b005b34801561018557600080fd5b5061018e610763565b60405161019b9190610f6c565b60405180910390f35b3480156101b057600080fd5b506101b961078d565b6040516101c69190610be1565b60405180910390f35b3480156101db57600080fd5b506101f660048036038101906101f1919061103c565b61079c565b604051610204929190611128565b60405180910390f35b34801561021957600080fd5b5061022261085e565b60405161022f9190610be1565b60405180910390f35b34801561024457600080fd5b5061024d610886565b60405161025a9190610be1565b60405180910390f35b34801561026f57600080fd5b5061028a60048036038101906102859190611158565b610893565b6040516102979190610f6c565b60405180910390f35b3480156102ac57600080fd5b506102b56108da565b6040516102c29190610be1565b60405180910390f35b3480156102d757600080fd5b506102e06108e4565b6040516102ed9190610be1565b60405180910390f35b60007f0000000000000000000000000000000000000000000000000000000000000000905090565b6000600160149054906101000a900460ff16905090565b7f000000000000000000000000000000000000000000000000000000000000000073ffffffffffffffffffffffffffffffffffffffff163373ffffffffffffffffffffffffffffffffffffffff16146103e757337f00000000000000000000000000000000000000000000000000000000000000006040517f1cf993f40000000000000000000000000000000000000000000000000000000081526004016103de929190611185565b60405180910390fd5b6103f182826108f0565b5050565b7f000000000000000000000000000000000000000000000000000000000000000034101561044f576040517fad0252ee00000000000000000000000000000000000000000000000000000000815260040160405180910390fd5b6000600181111561046357610462610bfc565b5b600160149054906101000a900460ff16600181111561048557610484610bfc565b5b146104bc576040517f1425571c00000000000000000000000000000000000000000000000000000000815260040160405180910390fd5b6000339080600181540180825580915050600190039060005260206000200160009091909190916101000a81548173ffffffffffffffffffffffffffffffffffffffff021916908373ffffffffffffffffffffffffffffffffffffffff1602179055503373ffffffffffffffffffffffffffffffffffffffff167f0805e1d667bddb8a95f0f09880cf94f403fb596ce79928d9f29b74203ba284d460405160405180910390a2565b600061057e6040518060200160405280600081525061079c565b509050806105ed5747600080549050600160149054906101000a900460ff1660018111156105af576105ae610bfc565b5b6040517f584327aa0000000000000000000000000000000000000000000000000000000081526004016105e4939291906111ae565b60405180910390fd5b60018060146101000a81548160ff0219169083600181111561061257610611610bfc565b5b021790555060007f000000000000000000000000000000000000000000000000000000000000000073ffffffffffffffffffffffffffffffffffffffff16635d3b1d307f00000000000000000000000000000000000000000000000000000000000000007f000000000000000000000000000000000000000000000000000000000000000060037f000000000000000000000000000000000000000000000000000000000000000060016040518663ffffffff1660e01b81526004016106dc95949392919061125d565b602060405180830381600087803b1580156106f657600080fd5b505af115801561070a573d6000803e3d6000fd5b505050506040513d601f19601f8201168201806040525081019061072e91906112c5565b9050807fcd6e45c8998311cab7e9d4385596cac867e20a0587194b954fa3a731c93ce78b60405160405180910390a250505050565b6000600160009054906101000a900473ffffffffffffffffffffffffffffffffffffffff16905090565b6000600163ffffffff16905090565b600060606000600160149054906101000a900460ff1660018111156107c4576107c3610bfc565b5b600060018111156107d8576107d7610bfc565b5b14905060007f00000000000000000000000000000000000000000000000000000000000000006002544261080c9190611321565b1190506000806000805490501190506000804711905083801561082c5750825b80156108355750815b801561083e5750805b955085604051806020016040528060008152509550955050505050915091565b60007f0000000000000000000000000000000000000000000000000000000000000000905090565b6000600361ffff16905090565b60008082815481106108a8576108a7611355565b5b9060005260206000200160009054906101000a900473ffffffffffffffffffffffffffffffffffffffff169050919050565b6000600254905090565b60008080549050905090565b600080805490508260008151811061090b5761090a611355565b5b602002602001015161091d91906113b3565b9050600080828154811061093457610933611355565b5b9060005260206000200160009054906101000a900473ffffffffffffffffffffffffffffffffffffffff16905080600160006101000a81548173ffffffffffffffffffffffffffffffffffffffff021916908373ffffffffffffffffffffffffffffffffffffffff1602179055506000600160146101000a81548160ff021916908360018111156109c8576109c7610bfc565b5b0217905550600067ffffffffffffffff8111156109e8576109e7610ce4565b5b604051908082528060200260200182016040528015610a165781602001602082028036833780820191505090505b5060009080519060200190610a2c929190610b21565b504260028190555060008173ffffffffffffffffffffffffffffffffffffffff1647604051610a5a90611415565b60006040518083038185875af1925050503d8060008114610a97576040519150601f19603f3d011682016040523d82523d6000602084013e610a9c565b606091505b5050905080610ad7576040517f47c5e6cd00000000000000000000000000000000000000000000000000000000815260040160405180910390fd5b8173ffffffffffffffffffffffffffffffffffffffff167f5b690ec4a06fe979403046eaeea5b3ce38524683c3001f662c8b5a829632f7df60405160405180910390a25050505050565b828054828255906000526020600020908101928215610b9a579160200282015b82811115610b995782518260006101000a81548173ffffffffffffffffffffffffffffffffffffffff021916908373ffffffffffffffffffffffffffffffffffffffff16021790555091602001919060010190610b41565b5b509050610ba79190610bab565b5090565b5b80821115610bc4576000816000905550600101610bac565b5090565b6000819050919050565b610bdb81610bc8565b82525050565b6000602082019050610bf66000830184610bd2565b92915050565b7f4e487b7100000000000000000000000000000000000000000000000000000000600052602160045260246000fd5b60028110610c3c57610c3b610bfc565b5b50565b6000819050610c4d82610c2b565b919050565b6000610c5d82610c3f565b9050919050565b610c6d81610c52565b82525050565b6000602082019050610c886000830184610c64565b92915050565b6000604051905090565b600080fd5b600080fd5b610cab81610bc8565b8114610cb657600080fd5b50565b600081359050610cc881610ca2565b92915050565b600080fd5b6000601f19601f8301169050919050565b7f4e487b7100000000000000000000000000000000000000000000000000000000600052604160045260246000fd5b610d1c82610cd3565b810181811067ffffffffffffffff82111715610d3b57610d3a610ce4565b5b80604052505050565b6000610d4e610c8e565b9050610d5a8282610d13565b919050565b600067ffffffffffffffff821115610d7a57610d79610ce4565b5b602082029050602081019050919050565b600080fd5b6000610da3610d9e84610d5f565b610d44565b90508083825260208201905060208402830185811115610dc657610dc5610d8b565b5b835b81811015610def5780610ddb8882610cb9565b845260208401935050602081019050610dc8565b5050509392505050565b600082601f830112610e0e57610e0d610cce565b5b8135610e1e848260208601610d90565b91505092915050565b60008060408385031215610e3e57610e3d610c98565b5b6000610e4c85828601610cb9565b925050602083013567ffffffffffffffff811115610e6d57610e6c610c9d565b5b610e7985828601610df9565b9150509250929050565b600080fd5b60008083601f840112610e9e57610e9d610cce565b5b8235905067ffffffffffffffff811115610ebb57610eba610e83565b5b602083019150836001820283011115610ed757610ed6610d8b565b5b9250929050565b60008060208385031215610ef557610ef4610c98565b5b600083013567ffffffffffffffff811115610f1357610f12610c9d565b5b610f1f85828601610e88565b92509250509250929050565b600073ffffffffffffffffffffffffffffffffffffffff82169050919050565b6000610f5682610f2b565b9050919050565b610f6681610f4b565b82525050565b6000602082019050610f816000830184610f5d565b92915050565b600080fd5b600067ffffffffffffffff821115610fa757610fa6610ce4565b5b610fb082610cd3565b9050602081019050919050565b82818337600083830152505050565b6000610fdf610fda84610f8c565b610d44565b905082815260208101848484011115610ffb57610ffa610f87565b5b611006848285610fbd565b509392505050565b600082601f83011261102357611022610cce565b5b8135611033848260208601610fcc565b91505092915050565b60006020828403121561105257611051610c98565b5b600082013567ffffffffffffffff8111156110705761106f610c9d565b5b61107c8482850161100e565b91505092915050565b60008115159050919050565b61109a81611085565b82525050565b600081519050919050565b600082825260208201905092915050565b60005b838110156110da5780820151818401526020810190506110bf565b838111156110e9576000848401525b50505050565b60006110fa826110a0565b61110481856110ab565b93506111148185602086016110bc565b61111d81610cd3565b840191505092915050565b600060408201905061113d6000830185611091565b818103602083015261114f81846110ef565b90509392505050565b60006020828403121561116e5761116d610c98565b5b600061117c84828501610cb9565b91505092915050565b600060408201905061119a6000830185610f5d565b6111a76020830184610f5d565b9392505050565b60006060820190506111c36000830186610bd2565b6111d06020830185610bd2565b6111dd6040830184610bd2565b949350505050565b6000819050919050565b6111f8816111e5565b82525050565b600067ffffffffffffffff82169050919050565b61121b816111fe565b82525050565b600061ffff82169050919050565b61123881611221565b82525050565b600063ffffffff82169050919050565b6112578161123e565b82525050565b600060a08201905061127260008301886111ef565b61127f6020830187611212565b61128c604083018661122f565b611299606083018561124e565b6112a6608083018461124e565b9695505050505050565b6000815190506112bf81610ca2565b92915050565b6000602082840312156112db576112da610c98565b5b60006112e9848285016112b0565b91505092915050565b7f4e487b7100000000000000000000000000000000000000000000000000000000600052601160045260246000fd5b600061132c82610bc8565b915061133783610bc8565b92508282101561134a576113496112f2565b5b828203905092915050565b7f4e487b7100000000000000000000000000000000000000000000000000000000600052603260045260246000fd5b7f4e487b7100000000000000000000000000000000000000000000000000000000600052601260045260246000fd5b60006113be82610bc8565b91506113c983610bc8565b9250826113d9576113d8611384565b5b828206905092915050565b600081905092915050565b50565b60006113ff6000836113e4565b915061140a826113ef565b600082019050919050565b6000611420826113f2565b915081905091905056fea264697066735822122035b0708465b577b61bb6acc44dcb3ebd55392c24f8d5c18ccbcd9ef4283bbefc64736f6c63430008090033",
  "devdoc": {
    "author": "Nicolas Cinzer",
    "details": "This implement CHAINLINK VRF and CHAINLINK KEEPERS",
    "kind": "dev",
    "methods": {
      "checkUpkeep(bytes)": {
        "details": "calldata type doesn't support strings!!! Must be a memory parameter."
      }
    },
    "title": "A Raffle Contract",
    "version": 1
  },
  "userdoc": {
    "kind": "user",
    "methods": {},
    "notice": "This contract is for creating an untamperable decentralized smart contract",
    "version": 1
  },
  "storageLayout": {
    "storage": [
      {
        "astId": 197,
        "contract": "contracts/Raffle.sol:Raffle",
        "label": "s_players",
        "offset": 0,
        "slot": "0",
        "type": "t_array(t_address_payable)dyn_storage"
      },
      {
        "astId": 214,
        "contract": "contracts/Raffle.sol:Raffle",
        "label": "s_recentWinner",
        "offset": 0,
        "slot": "1",
        "type": "t_address"
      },
      {
        "astId": 217,
        "contract": "contracts/Raffle.sol:Raffle",
        "label": "s_raffleState",
        "offset": 20,
        "slot": "1",
        "type": "t_enum(RaffleState)192"
      },
      {
        "astId": 219,
        "contract": "contracts/Raffle.sol:Raffle",
        "label": "s_lastTimeStamp",
        "offset": 0,
        "slot": "2",
        "type": "t_uint256"
      }
    ],
    "types": {
      "t_address": {
        "encoding": "inplace",
        "label": "address",
        "numberOfBytes": "20"
      },
      "t_address_payable": {
        "encoding": "inplace",
        "label": "address payable",
        "numberOfBytes": "20"
      },
      "t_array(t_address_payable)dyn_storage": {
        "base": "t_address_payable",
        "encoding": "dynamic_array",
        "label": "address payable[]",
        "numberOfBytes": "32"
      },
      "t_enum(RaffleState)192": {
        "encoding": "inplace",
        "label": "enum Raffle.RaffleState",
        "numberOfBytes": "1"
      },
      "t_uint256": {
        "encoding": "inplace",
        "label": "uint256",
        "numberOfBytes": "32"
      }
    }
  }
}